:100000000C942A000C9447000C9447000C94470071
:100010000C94F5090C94C2090C9447000C945C09EB
:100020000C948F090C9429090C94F6080C94C308BD
:100030000C9447000C9417070C947D070C944A0706
:100040000C9447000C9447000C9447000C94470014
:100050000C94470011241FBECFE5D8E0DEBFCDBF12
:1000600012E0A0E6B0E0EEEFF2E302C005900D92E0
:10007000AC37B107D9F712E0ACE7B2E001C01D928E
:10008000AA38B107E1F70E94F4180C947D190C947A
:100090000000EF92FF920F931F937B018C0120E0F1
:1000A00030E040E05FE40E94F50388238CF0C80153
:1000B000B70120E030E040E05FE40E94C1010E940F
:1000C00055049B01AC01205030404040504806C0D0
:1000D000C801B7010E9455049B01AC01B901CA01D6
:1000E0001F910F91FF90EF900895A0E0B0E0EBE733
:1000F000F0E00C940119DC012B01FA019C91923083
:1001000008F439C1EB018881823008F433C194309E
:1001100069F4843009F02FC111969C91119789815F
:10012000981709F428C1A3E7B1E025C1843009F488
:1001300021C18230A9F4923009F01DC19A01AD01AC
:1001400088E0EA010990AE01E90109929E0181501F
:10015000C1F7E201898111969C918923818308C1AD
:10016000923009F407C112962D903C901397EB0141
:100170008A819B811496AD90BD90CD90DC901797AD
:10018000EC80FD800E811F819101281B390BB90184
:1001900037FF04C066277727621B730B6032710537
:1001A0000CF061C0121613066CF537014801062EDB
:1001B00004C096948794779467940A94D2F721E0C8
:1001C00030E040E050E004C0220F331F441F551FB1
:1001D0006A95D2F721503040404050402E213F21B7
:1001E00040235123211531054105510521F021E01E
:1001F00030E040E050E079018A01E628F72808293C
:1002000019293CC0232BD1F1260E371E350146019A
:10021000062E04C096948794779467940A94D2F734
:1002200021E030E040E050E004C0220F331F441FC3
:10023000551F6A95D2F721503040404050402A2146
:100240003B214C215D21211531054105510521F04E
:1002500021E030E040E050E059016A01A628B728CB
:10026000C828D9280BC0821593052CF01C01AA249C
:10027000BB24650103C0EE24FF24870111969C91E5
:10028000D20111968C91981709F445C0992339F041
:10029000A80197012A193B094C095D0906C0A6016E
:1002A00095012E193F09400B510B57FD08C01182D3
:1002B0003382228224833583468357831DC081E0A5
:1002C00081833382228288279927DC01821B930B4A
:1002D000A40BB50B84839583A683B7830DC0220F2F
:1002E000331F441F551F24833583468357838281E0
:1002F000938101979383828324813581468157813D
:10030000DA01C9010197A109B1098F5F9F4FAF4F72
:10031000BF4328F30BC0918333822282EA0CFB1C7B
:100320000C1D1D1DE482F5820683178383E0808304
:10033000248135814681578157FF1AC0C901AA27F8
:1003400097FDA095BA2F81709070A070B0705695EF
:10035000479537952795822B932BA42BB52B848318
:100360009583A683B7838281938101969383828349
:10037000DF0101C0D201CD01CDB7DEB7E2E10C94BF
:100380001D19A0E2B0E0E7ECF1E00C940D196983CF
:100390007A838B839C832D833E834F835887E9E048
:1003A000EE2EF12CEC0EFD1ECE010196B7010E943F
:1003B00046068E010F5E1F4FCE010596B8010E94C2
:1003C00046068A8991E089278A8BC701B801AE0168
:1003D000475E5F4F0E9475000E947105A096E6E09F
:1003E0000C942919A0E2B0E0E8EFF1E00C940D19AB
:1003F00069837A838B839C832D833E834F835887C5
:10040000F9E0EF2EF12CEC0EFD1ECE010196B701A6
:100410000E9446068E010F5E1F4FCE010596B80161
:100420000E944606C701B801AE01475E5F4F0E94B9
:1004300075000E947105A096E6E00C942919A0E2CF
:10044000B0E0E5E2F2E00C94011969837A838B83D2
:100450009C832D833E834F835887CE010196BE0136
:10046000675F7F4F0E944606CE010596BE016F5E14
:100470007F4F0E9446069985923088F089898230A4
:10048000C8F0943019F4823051F404C0843029F457
:10049000923081F483E791E0C6C0923049F420E0C5
:1004A0009A858A89981321E02A87CE010996BBC0D4
:1004B000823049F420E09A858A89981321E02A8BBA
:1004C000CE014196B0C02D843E844F8458886D88FB
:1004D0007E888F88988CEE24FF248701AA24BB2471
:1004E000650140E050E060E070E0E0E0F0E0C10174
:1004F00081709070892BE9F0E60CF71C081D191D1E
:100500009A01AB012A0D3B1D4C1D5D1D80E090E062
:10051000A0E0B0E0E614F7040805190520F481E036
:1005200090E0A0E0B0E0BA01A901480F591F6A1F8E
:100530007B1FAA0CBB1CCC1CDD1C97FE08C081E0F5
:1005400090E0A0E0B0E0A82AB92ACA2ADB2A3196B6
:10055000E032F10549F0660C771C881C991C569412
:10056000479437942794C3CFFA85EA892B893C892D
:100570008B859C85280F391F2E5F3F4F17C0CA01FE
:1005800081709070892B61F016950795F794E79428
:1005900080E090E0A0E0B0E8E82AF92A0A2B1B2BC3
:1005A00076956795579547952F5F3F4F77FDE7CF36
:1005B0000CC0440F551F661F771F17FD4160EE0CDE
:1005C000FF1C001F111F21503040403090E05907A0
:1005D00090E0690790E4790760F32B8F3C8FDB0193
:1005E000CA018F779070A070B07080349105A1051A
:1005F000B10561F447FD0AC0E114F10401051105DC
:1006000029F0405C5F4F6F4F7F4F40781A8EFE1786
:1006100011F081E08A8F4D8F5E8F6F8F78A383E01A
:10062000898FCE0149960E947105A096E2E10C9453
:100630001D19A8E1B0E0EFE1F3E00C94091969831A
:100640007A838B839C832D833E834F835887B9E0C5
:10065000EB2EF12CEC0EFD1ECE010196B7010E948F
:1006600046068E010F5E1F4FCE010596B8010E940F
:1006700046062985223008F47EC03989323010F4CC
:10068000B8017CC08A859A8989278A87243011F02D
:10069000223031F4231709F06EC063E771E06EC0B9
:1006A000343039F41D861E861F86188A1C861B86E8
:1006B00004C0323021F484E08987B7015FC02B8504
:1006C0003C858B899C89281B390B3C872B87ED84C3
:1006D000FE840F851889AD88BE88CF88D88CEA142F
:1006E000FB040C051D0540F4EE0CFF1C001F111F40
:1006F000215030403C872B8720E030E040E050E044
:1007000080E090E0A0E0B0E460E070E0EA14FB0478
:100710000C051D0540F0282B392B4A2B5B2BEA18C2
:10072000FB080C091D09B695A79597958795EE0CC2
:10073000FF1C001F111F6F5F7F4F6F31710531F775
:10074000DA01C9018F779070A070B0708034910584
:10075000A105B10561F427FD0AC0E114F10401050A
:10076000110529F0205C3F4F4F4F5F4F20782D87B8
:100770003E874F87588BBE01675F7F4FCB010E943A
:1007800071056896EAE00C942519A8E1B0E0EBEC5D
:10079000F3E00C940D1969837A838B839C832D83FA
:1007A0003E834F83588789E0E82EF12CEC0EFD1E26
:1007B000CE010196B7010E9446068E010F5E1F4FC3
:1007C000CE010596B8010E9446068985823040F028
:1007D0008989823028F0C701B8010E94BE0601C095
:1007E0008FEF6896E6E00C942919A8E1B0E0EBEFF2
:1007F000F3E00C940D1969837A838B839C832D839A
:100800003E834F83588789E0E82EF12CEC0EFD1EC5
:10081000CE010196B7010E9446068E010F5E1F4F62
:10082000CE010596B8010E9446068985823040F0C7
:100830008989823028F0C701B8010E94BE0601C034
:100840008FEF6896E6E00C942919A8E1B0E0EBE29E
:10085000F4E00C940D1969837A838B839C832D8338
:100860003E834F83588789E0E82EF12CEC0EFD1E65
:10087000CE010196B7010E9446068E010F5E1F4F02
:10088000CE010596B8010E9446068985823040F067
:100890008989823028F0C701B8010E94BE0601C0D4
:1008A00081E06896E6E00C942919ACE0B0E0EBE555
:1008B000F4E00C94111969837A838B839C83CE01B5
:1008C0000196BE016B5F7F4F0E9446068D8182308C
:1008D00061F1823050F1843021F48E81882351F10E
:1008E0002EC02F81388537FD20C06E812F31310514
:1008F0001CF06623F9F023C08EE190E0821B930B7D
:1009000029853A854B855C8504C056954795379572
:1009100027958A95D2F76623B1F05095409530958A
:1009200021953F4F4F4F5F4F0EC020E030E040E039
:1009300050E009C02FEF3FEF4FEF5FE704C020E02A
:1009400030E040E050E8B901CA012C96E2E00C9496
:100950002D19A8E0B0E0EFEAF4E00C9409197B014E
:100960008C01611571058105910519F482E0898377
:1009700060C083E089838EE1C82ED12CDC82CB82DB
:10098000ED82FE820F831887C801B7010E942205FD
:10099000FC013197F7FF3BC0222733272E1B3F0B6B
:1009A00057016801022E04C0D694C794B794A79447
:1009B0000A94D2F740E050E060E070E081E090E01F
:1009C000A0E0B0E004C0880F991FAA1FBB1F2A95A2
:1009D000D2F70197A109B1098E219F21A023B1234C
:1009E0000097A105B10521F041E050E060E070E022
:1009F0004A295B296C297D294D835E836F83788723
:100A00008EE190E08E1B9F0B9C838B8312C03097EE
:100A100081F00E2E04C0EE0CFF1C001F111F0A9463
:100A2000D2F7ED82FE820F831887CE1ADF0ADC82AE
:100A3000CB821A82CE0101960E9471052896EAE0C7
:100A40000C942519EF92FF920F931F937B018C0159
:100A500080E0E81680E0F80681E0080780E01807EB
:100A600088F48FEFE816F1040105110531F028F044
:100A700088E090E0A0E0B0E017C080E090E0A0E067
:100A8000B0E012C080E0E81680E0F80680E00807D9
:100A900081E0180728F088E190E0A0E0B0E004C011
:100AA00080E190E0A0E0B0E020E230E040E050E003
:100AB000281B390B4A0B5B0B04C016950795F7945E
:100AC000E7948A95D2F7F701E558FE4F8081281BFD
:100AD000310941095109C9011F910F91FF90EF9010
:100AE0000895DF92EF92FF920F931F93FC01E48031
:100AF000F58006811781D1808081823048F480E0C2
:100B000090E0A0E1B0E0E82AF92A0A2B1B2BA5C04F
:100B1000843009F49FC0823021F4EE24FF24870141
:100B200005C0E114F1040105110519F4E0E0F0E05D
:100B300096C0628173819FEF623879070CF05BC0C9
:100B400022E83FEF261B370B2A3131052CF020E03D
:100B500030E040E050E02AC0B801A701022E04C0F6
:100B600076956795579547950A94D2F781E090E07E
:100B7000A0E0B0E004C0880F991FAA1FBB1F2A95F0
:100B8000D2F70197A109B1098E219F21A023B1239A
:100B90000097A105B10521F081E090E0A0E0B0E070
:100BA0009A01AB01282B392B4A2B5B2BDA01C901A7
:100BB0008F779070A070B07080349105A105B10559
:100BC00039F427FF09C0205C3F4F4F4F5F4F04C0EF
:100BD000215C3F4F4F4F5F4FE0E0F0E02030A0E05E
:100BE0003A07A0E04A07A0E45A0710F0E1E0F0E07D
:100BF00079018A0127C06038710564F5FB01E1586D
:100C0000FF4FD801C7018F779070A070B07080340B
:100C10009105A105B10539F4E7FE0DC080E490E02F
:100C2000A0E0B0E004C08FE390E0A0E0B0E0E80E08
:100C3000F91E0A1F1B1F17FF05C016950795F7948D
:100C4000E794319687E016950795F794E7948A958F
:100C5000D1F705C0EE24FF248701EFEFF0E06E2FFF
:100C6000679566276795902F9F77D794DD24D79453
:100C70008E2F8695492F462B582F5D29B701CA0123
:100C80001F910F91FF90EF90DF900895FC01DB0121
:100C9000408151812281622F6F7770E0221F2227CD
:100CA000221F9381892F880F822B282F30E0991FD4
:100CB0009927991F11969C93119721153105A9F534
:100CC000411551056105710511F482E037C082E8D4
:100CD0009FEF13969C938E9312979A01AB0167E056
:100CE000220F331F441F551F6A95D1F783E08C9361
:100CF0000DC0220F331F441F551F12968D919C91DA
:100D00001397019713969C938E931297203080E04F
:100D1000380780E0480780E4580758F314962D936D
:100D20003D934D935C93179708952F3F310579F4C8
:100D3000411551056105710519F484E08C930895FE
:100D400064FF03C081E08C9312C01C9210C02F5727
:100D5000304013963C932E93129783E08C9387E058
:100D6000440F551F661F771F8A95D1F7706414963C
:100D70004D935D936D937C93179708951F93DC01BA
:100D8000FB019C91923008F447C08081823008F4C6
:100D900043C0943051F411961C91843099F58181AF
:100DA000682F70E0611B71093FC0843021F09230E0
:100DB00031F48230B9F18181882389F12DC01196F7
:100DC0001C9111978230F1F081811817D9F4129695
:100DD0002D913C911397828193818217930794F010
:100DE00028173907BCF014968D919D910D90BC91F8
:100DF000A02D2481358146815781281739074A075C
:100E00005B0718F4112341F00AC082179307A40767
:100E1000B50740F4112319F061E070E005C06FEFF1
:100E20007FEF02C060E070E0CB011F9108951F9238
:100E30000F920FB60F9211242F933F934F935F930E
:100E40006F937F938F939F93AF93BF93EF93FF9392
:100E5000DF93CF93CDB7DEB780917C0290917D0276
:100E6000009729F0E0917C02F0917D020995CF91E5
:100E7000DF91FF91EF91BF91AF919F918F917F9102
:100E80006F915F914F913F912F910F900FBE0F90F7
:100E90001F9018951F920F920FB60F9211242F9347
:100EA0003F934F935F936F937F938F939F93AF93F2
:100EB000BF93EF93FF93DF93CF93CDB7DEB78091CE
:100EC0007E0290917F02009729F0E0917E02F091DE
:100ED0007F020995CF91DF91FF91EF91BF91AF9183
:100EE0009F918F917F916F915F914F913F912F9142
:100EF0000F900FBE0F901F9018951F920F920FB674
:100F00000F9211242F933F934F935F936F937F938F
:100F10008F939F93AF93BF93EF93FF93DF93CF9301
:100F2000CDB7DEB78091800290918102009729F0C1
:100F3000E0918002F09181020995CF91DF91FF91BC
:100F4000EF91BF91AF919F918F917F916F915F9141
:100F50004F913F912F910F900FBE0F901F901895BA
:100F6000DF93CF9300D000D00F92CDB7DEB71D82B4
:100F70001C821B821A8219828D8182608D8387E692
:100F800090E09A8389838B8186608B83EBE2F0E02B
:100F90008D818083EAE2F0E08C8188618083E0E4E7
:100FA000F0E08B8180688083E0E4F0E089819A81C1
:100FB000892F99278083E9E2F0E0898180830F906F
:100FC0000F900F900F900F90CF91DF910895DF93C6
:100FD000CF9300D0CDB7DEB79A838983EBE2F0E000
:100FE0008081882F90E0807290700097B9F3ECE2D6
:100FF000F0E0898180830F900F90CF91DF91089569
:10100000DF93CF9300D0CDB7DEB71A821982EBE21F
:10101000F0E080818823DCF7ECE2F0E08081282F8B
:1010200030E089819A81822B932B9A8389838981ED
:101030009A810F900F90CF91DF910895DF93CF9316
:1010400000D00F92CDB7DEB79B838A83198211C07F
:101050008981282F30E08A819B81FC01E20FF31FF8
:101060008081282F30E089818F5F8983C9010E94A8
:10107000E7078981282F30E08A819B81FC01E20FFC
:10108000F31F8081882321F70F900F900F90CF914D
:10109000DF9108950F931F93DF93CF9300D00F92AA
:1010A000CDB7DEB79B838A8319828981282F30E0F0
:1010B0008A819B818C01020F131F0E940008F80196
:1010C00080830FC089818F5F89838981282F30E0D9
:1010D0008A819B818C01020F131F0E940008F80176
:1010E00080838981282F30E08A819B81FC01E20F77
:1010F000F31F80818D3031F78981282F30E08A817C
:101100009B81FC01E20FF31F10820F900F900F9054
:10111000CF91DF911F910F910895DF93CF9300D06E
:10112000CDB7DEB79A83898389819A8190937D02B6
:1011300080937C020F900F90CF91DF910895DF9301
:10114000CF9300D0CDB7DEB79A83898389819A8106
:1011500090937F0280937E020F900F90CF91DF914A
:101160000895DF93CF9300D0CDB7DEB79A838983FC
:1011700089819A8190938102809380020F900F90D1
:10118000CF91DF9108951F920F920FB60F92112405
:101190002F933F934F935F936F937F938F939F937F
:1011A000AF93BF93EF93FF93DF93CF93CDB7DEB7AA
:1011B0008091820290918302009729F0E09182024F
:1011C000F09183020995CF91DF91FF91EF91BF914B
:1011D000AF919F918F917F916F915F914F913F91CF
:1011E0002F910F900FBE0F901F9018951F920F9286
:1011F0000FB60F9211242F933F934F935F936F93EA
:101200007F938F939F93AF93BF93EF93FF93DF935E
:10121000CF93CDB7DEB78091820290918302009781
:1012200029F0E0918202F09183020995CF91DF913C
:10123000FF91EF91BF91AF919F918F917F916F91AE
:101240005F914F913F912F910F900FBE0F901F9084
:1012500018951F920F920FB60F9211242F933F9360
:101260004F935F936F937F938F939F93AF93BF93AE
:10127000EF93FF93DF93CF93CDB7DEB780918402D6
:1012800090918502009729F0E0918402F091850207
:101290000995CF91DF91FF91EF91BF91AF919F9110
:1012A0008F917F916F915F914F913F912F910F900F
:1012B0000FBE0F901F9018951F920F920FB60F92AE
:1012C00011242F933F934F935F936F937F938F934B
:1012D0009F93AF93BF93EF93FF93DF93CF93CDB7DC
:1012E000DEB78091840290918502009729F0E09109
:1012F0008402F09185020995CF91DF91FF91EF91E2
:10130000BF91AF919F918F917F916F915F914F911D
:101310003F912F910F900FBE0F901F9018951F9225
:101320000F920FB60F9211242F933F934F935F9319
:101330006F937F938F939F93AF93BF93EF93FF939D
:10134000DF93CF93CDB7DEB7809184029091850271
:10135000009729F0E0918402F09185020995CF91E0
:10136000DF91FF91EF91BF91AF919F918F917F910D
:101370006F915F914F913F912F910F900FBE0F9002
:101380001F9018951F920F920FB60F9211242F9352
:101390003F934F935F936F937F938F939F93AF93FD
:1013A000BF93EF93FF93DF93CF93CDB7DEB78091D9
:1013B000860290918702009729F0E0918602F091D1
:1013C00087020995CF91DF91FF91EF91BF91AF9186
:1013D0009F918F917F916F915F914F913F912F914D
:1013E0000F900FBE0F901F9018951F920F920FB67F
:1013F0000F9211242F933F934F935F936F937F939B
:101400008F939F93AF93BF93EF93FF93DF93CF930C
:10141000CDB7DEB78091860290918702009729F0C0
:10142000E0918602F09187020995CF91DF91FF91BB
:10143000EF91BF91AF919F918F917F916F915F914C
:101440004F913F912F910F900FBE0F901F901895C5
:10145000DF93CF93CDB7DEB7AFE4B0E0EFE4F0E0D9
:1014600080818C7F8C93AEE4B0E0EEE4F0E080818C
:10147000877E8C93AFE4B0E0EFE4F0E080818C6095
:101480008C93AEE4B0E0EEE4F0E0808188608C9371
:10149000AEE4B0E0EEE4F0E08081887F8C93AEE4CF
:1014A000B0E0EEE4F0E0808185608C93ECE4F0E065
:1014B00011821082EAE4F0E08DE093E09183808372
:1014C000E8E4F0E0118210820E94690ACF91DF9176
:1014D0000895DF93CF93CDB7DEB7A9E5B0E0E9E596
:1014E000F0E0808180618C93CF91DF910895DF934C
:1014F000CF9300D0CDB7DEB79A83898389819A8153
:1015000090938302809382020F900F90CF91DF918E
:101510000895DF93CF9300D0CDB7DEB79A83898348
:1015200089819A8190938502809384020F900F9015
:10153000CF91DF910895DF93CF9300D0CDB7DEB781
:101540009A83898389819A81909387028093860206
:101550000F900F90CF91DF910895DF93CF93CDB788
:10156000DEB7E3E5F0E01082E5E4F0E01082EFE4BE
:10157000F0E01082EEE4F0E01082CF91DF91089568
:101580000F931F93DF93CF930F92CDB7DEB789836D
:10159000E2E5F0E010820CE510E08981882F90E010
:1015A000A0E0B0E0BC01CD010E94A904DC01CB01A8
:1015B000BC01CD0120E030E048EC52E40E94190368
:1015C000DC01CB01BC01CD0120E030E04FE753E46A
:1015D0000E941F02DC01CB01BC01CD010E94490029
:1015E000DC01CB01F8018083A3E5B0E0E3E5F0E0A6
:1015F0008081877B8C93A3E5B0E0E3E5F0E0808118
:1016000080648C93A3E5B0E0E3E5F0E080818F7C1B
:101610008C9381E063E041E00E94F70BA3E5B0E02A
:10162000E3E5F0E0808180628C93A3E5B0E0E3E540
:10163000F0E08081887F8C93A3E5B0E0E3E5F0E003
:10164000808182608C930F90CF91DF911F910F91D9
:1016500008950F931F93DF93CF9300D0CDB7DEB7DC
:101660009A838983ECE4F0E011821082EAE4F0E0EE
:101670008DE093E09183808308E410E089819A8172
:10168000CC01A0E0B0E0BC01CD010E94A904DC01C6
:10169000CB01BC01CD0120E030E048EC52E40E94D7
:1016A0001903DC01CB01BC01CD0120E03FEF4FE786
:1016B00057E40E941F02DC01CB01BC01CD010E9456
:1016C0004900DC01CB01F8019183808383E064E071
:1016D00041E00E94F70BAEE4B0E0EEE4F0E0808180
:1016E000887F8C93AEE4B0E0EEE4F0E0808185602A
:1016F0008C930F900F90CF91DF911F910F910895D0
:101700000F931F93DF93CF930F92CDB7DEB78983EB
:10171000E4E4F0E0108203E410E08981882F90E097
:10172000A0E0B0E0BC01CD010E94A904DC01CB0126
:10173000BC01CD0120E030E048EC52E40E941903E6
:10174000DC01CB01BC01CD0120E030E04FE753E4E8
:101750000E941F02DC01CB01BC01CD010E944900A7
:10176000DC01CB01F8018083A5E4B0E0E5E4F0E022
:1017700080818F7C8C9383E067E041E00E94F70BCF
:10178000A5E4B0E0E5E4F0E0808180628C93A5E41C
:10179000B0E0E5E4F0E08081887F8C93A5E4B0E0E0
:1017A000E5E4F0E0808187608C930F90CF91DF912A
:1017B0001F910F910895DF93CF93CDB7DEB7AFE5BB
:1017C000B0E0EFE5F0E0808180688C93CF91DF910D
:1017D0000895DF93CF93CDB7DEB7AFE5B0E0EFE587
:1017E000F0E080818F778C93CF91DF910895DF9324
:1017F000CF9300D000D00F92CDB7DEB789836A8334
:101800004B838981843008F0D5C08A81883008F004
:10181000D1C08981282F30E03D832C838C819D812C
:101820008130910509F443C02C813D81223031057E
:101830002CF48C819D81009771F0BCC02C813D817E
:101840002230310509F45FC08C819D818330910580
:1018500009F485C0AFC08B818130A1F4AAE3B0E068
:10186000EAE3F0E08081482F8A81282F30E081E090
:1018700090E0022E02C0880F991F0A94E2F7842B91
:101880008C9398C0AAE3B0E0EAE3F0E08081482FAF
:101890008A81282F30E081E090E0022E02C0880F7C
:1018A000991F0A94E2F7809584238C9383C08B81DF
:1018B0008130A1F4A7E3B0E0E7E3F0E08081482FB6
:1018C0008A81282F30E081E090E0022E02C0880F4C
:1018D000991F0A94E2F7842B8C936CC0A7E3B0E0C5
:1018E000E7E3F0E08081482F8A81282F30E081E013
:1018F00090E0022E02C0880F991F0A94E2F78095AB
:1019000084238C9357C08B818130A1F4A4E3B0E091
:10191000E4E3F0E08081482F8A81282F30E081E0E5
:1019200090E0022E02C0880F991F0A94E2F7842BE0
:101930008C9340C0A4E3B0E0E4E3F0E08081482F62
:101940008A81282F30E081E090E0022E02C0880FCB
:10195000991F0A94E2F7809584238C932BC08B8186
:101960008130A1F4A1E3B0E0E1E3F0E08081482F11
:101970008A81282F30E081E090E0022E02C0880F9B
:10198000991F0A94E2F7842B8C9314C0A1E3B0E072
:10199000E1E3F0E08081482F8A81282F30E081E068
:1019A00090E0022E02C0880F991F0A94E2F78095FA
:1019B00084238C930F900F900F900F900F90CF91E6
:1019C000DF910895DF93CF9300D000D00F92CDB771
:1019D000DEB78A836B8319828A81843008F084C0E1
:1019E0008B81883008F080C08A81282F30E03D83C9
:1019F0002C834C815D814130510579F18C819D8131
:101A00008230910534F42C813D812115310569F036
:101A10006BC04C815D8142305105B9F18C819D8153
:101A20008330910509F449C05FC0E9E3F0E08081AB
:101A3000282F30E08B81882F90E0A90102C05595B6
:101A400047958A95E2F7CA0181709070882319F052
:101A500081E0898349C0198247C0E6E3F0E08081D4
:101A6000282F30E08B81882F90E0A90102C0559586
:101A700047958A95E2F7CA0181709070882319F022
:101A800081E0898331C019822FC0E3E3F0E08081D7
:101A9000282F30E08B81882F90E0A90102C0559556
:101AA00047958A95E2F7CA0181709070882319F0F2
:101AB00081E0898319C0198217C0E0E3F0E08081DA
:101AC000282F30E08B81882F90E0A90102C0559526
:101AD00047958A95E2F7CA0181709070882319F0C2
:101AE00081E0898301C0198289810F900F900F9046
:101AF0000F900F90CF91DF910895DF93CF9300D097
:101B000000D00F92CDB7DEB789836A834B8389817A
:101B1000843008F0D5C08A81883008F0D1C089812E
:101B2000282F30E03D832C838C819D81813091056D
:101B300009F443C02C813D81223031052CF48C8185
:101B40009D81009771F0BCC02C813D812230310510
:101B500009F45FC08C819D818330910509F485C0B3
:101B6000AFC08B818130A1F4ABE3B0E0EBE3F0E0F8
:101B70008081482F8A81282F30E081E090E0022E7A
:101B800002C0880F991F0A94E2F7842B8C9398C0A7
:101B9000ABE3B0E0EBE3F0E08081482F8A81282FAF
:101BA00030E081E090E0022E02C0880F991F0A9475
:101BB000E2F7809584238C9383C08B818130A1F4DC
:101BC000A8E3B0E0E8E3F0E08081482F8A81282F85
:101BD00030E081E090E0022E02C0880F991F0A9445
:101BE000E2F7842B8C936CC0A8E3B0E0E8E3F0E06C
:101BF0008081482F8A81282F30E081E090E0022EFA
:101C000002C0880F991F0A94E2F7809584238C9371
:101C100057C08B818130A1F4A5E3B0E0E5E3F0E0AB
:101C20008081482F8A81282F30E081E090E0022EC9
:101C300002C0880F991F0A94E2F7842B8C9340C04E
:101C4000A5E3B0E0E5E3F0E08081482F8A81282F0A
:101C500030E081E090E0022E02C0880F991F0A94C4
:101C6000E2F7809584238C932BC08B818130A1F483
:101C7000A2E3B0E0E2E3F0E08081482F8A81282FE0
:101C800030E081E090E0022E02C0880F991F0A9494
:101C9000E2F7842B8C9314C0A2E3B0E0E2E3F0E01F
:101CA0008081482F8A81282F30E081E090E0022E49
:101CB00002C0880F991F0A94E2F7809584238C93C1
:101CC0000F900F900F900F900F90CF91DF9108958C
:101CD000DF93CF9300D000D0CDB7DEB789836A837E
:101CE0008981843008F072C08A81883008F06EC023
:101CF0008981282F30E03C832B838B819C8181302C
:101D0000910549F12B813C81223031052CF48B81E6
:101D10009C81009761F05AC02B813C8122303105B3
:101D200071F18B819C8183309105E9F14FC0ABE368
:101D3000B0E0EBE3F0E08081482F8A81282F30E08B
:101D400081E090E0022E02C0880F991F0A94E2F70A
:101D500084278C933BC0A8E3B0E0E8E3F0E0808107
:101D6000482F8A81282F30E081E090E0022E02C0C7
:101D7000880F991F0A94E2F784278C9327C0A5E364
:101D8000B0E0E5E3F0E08081482F8A81282F30E041
:101D900081E090E0022E02C0880F991F0A94E2F7BA
:101DA00084278C9313C0A2E3B0E0E2E3F0E08081EB
:101DB000482F8A81282F30E081E090E0022E02C077
:101DC000880F991F0A94E2F784278C930F900F9045
:101DD0000F900F90CF91DF910895DF93CF9300D0B4
:101DE00000D0CDB7DEB789836A838981843090F5CE
:101DF0008981282F30E03C832B838B819C8181302B
:101E00009105D1F02B813C81223031052CF48B815E
:101E10009C81009761F01EC02B813C8122303105EE
:101E200081F08B819C818330910581F013C0EAE3BE
:101E3000F0E08A8180830EC0E7E3F0E08A8180834E
:101E400009C0E4E3F0E08A81808304C0E1E3F0E0CC
:101E50008A8180830F900F900F900F90CF91DF9128
:101E60000895DF93CF9300D000D0CDB7DEB78A833B
:101E700019828A81843090F58A81282F30E03C8352
:101E80002B838B819C8181309105D1F02B813C810A
:101E9000223031052CF48B819C81009761F01EC0AB
:101EA0002B813C812230310581F08B819C818330F4
:101EB000910581F013C0E9E3F0E0808189830EC0D1
:101EC000E6E3F0E08081898309C0E3E3F0E080810C
:101ED000898304C0E0E3F0E08081898389810F90E9
:101EE0000F900F900F90CF91DF910895DF93CF93D4
:101EF00000D000D0CDB7DEB789836A838981843072
:101F000090F58981282F30E03C832B838B819C8145
:101F100081309105D1F02B813C81223031052CF4A8
:101F20008B819C81009761F01EC02B813C81223007
:101F3000310581F08B819C818330910581F013C044
:101F4000EBE3F0E08A8180830EC0E8E3F0E08A8171
:101F5000808309C0E5E3F0E08A81808304C0E2E386
:101F6000F0E08A8180830F900F900F900F90CF91B7
:101F7000DF910895DF93CF9300D00F92CDB7DEB7F6
:101F800089838981843008F03EC08981282F30E020
:101F90003B832A838A819B8181309105E9F02A81E4
:101FA0003B81223031052CF48A819B81009761F0BE
:101FB0002AC02A813B8122303105B1F08A819B8180
:101FC00083309105C9F01FC0ABE3B0E0EBE3F0E074
:101FD000808180958C9317C0A8E3B0E0E8E3F0E03F
:101FE000808180958C930FC0A5E3B0E0E5E3F0E03D
:101FF000808180958C9307C0A2E3B0E0E2E3F0E03B
:10200000808180958C930F900F900F90CF91DF91EE
:102010000895DF93CF9300D000D0CDB7DEB789838A
:102020006A838981843008F061C08A818F708A83D5
:102030008981282F30E03C832B838B819C818130E8
:10204000910529F12B813C81223031052CF48B81C3
:102050009C81009761F04AC02B813C812230310580
:1020600031F18B819C818330910589F13FC0ABE3D5
:10207000B0E0EBE3F0E08081807F8C93ABE3B0E0F5
:10208000EBE3F0E090818A81892B8C932FC0A8E349
:10209000B0E0E8E3F0E08081807F8C93A8E3B0E0DB
:1020A000E8E3F0E090818A81892B8C931FC0A5E33F
:1020B000B0E0E5E3F0E08081807F8C93A5E3B0E0C1
:1020C000E5E3F0E090818A81892B8C930FC0A2E335
:1020D000B0E0E2E3F0E08081807F8C93A2E3B0E0A7
:1020E000E2E3F0E090818A81892B8C930F900F902E
:1020F0000F900F90CF91DF910895DF93CF9300D091
:1021000000D0CDB7DEB789836A838981843008F037
:1021100061C08A81807F8A838981282F30E03C8357
:102120002B838B819C818130910529F12B813C810E
:10213000223031052CF48B819C81009761F04AC0DC
:102140002B813C812230310531F18B819C818330A0
:10215000910589F13FC0ABE3B0E0EBE3F0E08081B3
:102160008F708C93ABE3B0E0EBE3F0E090818A8179
:10217000892B8C932FC0A8E3B0E0E8E3F0E08081E6
:102180008F708C93A8E3B0E0E8E3F0E090818A815F
:10219000892B8C931FC0A5E3B0E0E5E3F0E08081DC
:1021A0008F708C93A5E3B0E0E5E3F0E090818A8145
:1021B000892B8C930FC0A2E3B0E0E2E3F0E08081D2
:1021C0008F708C93A2E3B0E0E2E3F0E090818A812B
:1021D000892B8C930F900F900F900F90CF91DF91E0
:1021E0000895DF93CF93CDB7DEB783E064E041E09D
:1021F0000E94F70B83E065E041E00E94F70B83E06B
:1022000066E041E00E94F70B81E06FEF0E94ED0E67
:1022100088E30E9414118CE00E94141181E00E9456
:102220001411CF91DF910895DF93CF93CDB7DEB72F
:10223000EA970FB6F894DEBF0FBECDBF8AAF19AED6
:1022400083E064E040E00E947D0D83E065E040E0D3
:102250000E947D0D80E090E0A0E8BFE38DAB9EABD7
:10226000AFABB8AF6DA97EA98FA998AD20E030E0E3
:102270004AEF54E40E941F02DC01CB0189AB9AAB08
:10228000ABABBCAB69A97AA98BA99CA920E030E0D3
:1022900040E85FE30E94250488232CF481E090E06D
:1022A00098AB8FA73FC069A97AA98BA99CA920E008
:1022B0003FEF4FE757E40E94C50318164CF56DA990
:1022C0007EA98FA998AD20E030E040E251E40E9461
:1022D0001F02DC01CB01BC01CD010E944900DC01E1
:1022E000CB0198AB8FA70FC088EC90E09EA78DA77D
:1022F0008DA59EA50197F1F79EA78DA78FA598A9FB
:10230000019798AB8FA78FA598A9009769F714C07C
:1023100069A97AA98BA99CA90E944900DC01CB017B
:1023200098AB8FA78FA598A99CA78BA78BA59CA5D9
:102330000197F1F79CA78BA783E066E041E00E943C
:102340007D0D80E090E0A0E8BFE38FA398A7A9A748
:10235000BAA76FA178A589A59AA520E030E04AEF39
:1023600054E40E941F02DC01CB018BA39CA3ADA30C
:10237000BEA36BA17CA18DA19EA120E030E040E82E
:102380005FE30E94250488232CF481E090E09AA367
:1023900089A33FC06BA17CA18DA19EA120E03FEF4E
:1023A0004FE757E40E94C50318164CF56FA178A5B6
:1023B00089A59AA520E030E040E251E40E941F0286
:1023C000DC01CB01BC01CD010E944900DC01CB0145
:1023D0009AA389A30FC088EC90E098A38F8F8F8D6C
:1023E00098A10197F1F798A38F8F89A19AA10197DE
:1023F0009AA389A389A19AA1009769F714C06BA138
:102400007CA18DA19EA10E944900DC01CB019AA371
:1024100089A389A19AA19E8F8D8F8D8D9E8D019705
:10242000F1F79E8F8D8F81E06AAD0E94760F80E07C
:1024300090E0A0E8BFE3898F9A8FAB8FBC8F698D46
:102440007A8D8B8D9C8D20E030E04AEF54E40E9421
:102450001F02DC01CB018D8B9E8BAF8BB88F6D89FA
:102460007E898F89988D20E030E040E85FE30E940C
:10247000250488232CF481E090E09C8B8B8B3FC05B
:102480006D897E898F89988D20E03FEF4FE757E473
:102490000E94C50318164CF5698D7A8D8B8D9C8D25
:1024A00020E030E040E251E40E941F02DC01CB0159
:1024B000BC01CD010E944900DC01CB019C8B8B8BC0
:1024C0000FC088EC90E09A8B898B89899A89019753
:1024D000F1F79A8B898B8B899C8901979C8B8B8BCD
:1024E0008B899C89009769F714C06D897E898F89D3
:1024F000988D0E944900DC01CB019C8B8B8B8B89D2
:102500009C89988B8F878F8598890197F1F7988B95
:102510008F8783E066E040E00E947D0D80E090E0E0
:10252000A0E8BFE38B879C87AD87BE876B857C85E2
:102530008D859E8520E030E04AEF54E40E941F0222
:10254000DC01CB018F839887A987BA876F81788553
:1025500089859A8520E030E040E85FE30E94250409
:1025600088232CF481E090E09E838D833FC06F81AF
:10257000788589859A8520E03FEF4FE757E40E94F0
:10258000C50318164CF56B857C858D859E8520E0EE
:1025900030E040E251E40E941F02DC01CB01BC01AB
:1025A000CD010E944900DC01CB019E838D830FC0C9
:1025B00088EC90E09C838B838B819C810197F1F761
:1025C0009C838B838D819E8101979E838D838D81DA
:1025D0009E81009769F714C06F81788589859A85F7
:1025E0000E944900DC01CB019E838D838D819E81F9
:1025F0009A83898389819A810197F1F79A838983E4
:10260000EA960FB6F894DEBF0FBECDBFCF91DF9133
:102610000895DF93CF93CDB7DEB7EA970FB6F8945E
:10262000DEBF0FBECDBF8AAF19AE83E064E041E0EC
:102630000E947D0D83E065E040E00E947D0D80E01A
:1026400090E0A0E8BFE38DAB9EABAFABB8AF6DA998
:102650007EA98FA998AD20E030E04AEF54E40E94B3
:102660001F02DC01CB0189AB9AABABABBCAB69A958
:102670007AA98BA99CA920E030E040E85FE30E94A2
:10268000250488232CF481E090E098AB8FA73FC00D
:1026900069A97AA98BA99CA920E03FEF4FE757E4ED
:1026A0000E94C50318164CF56DA97EA98FA998AD97
:1026B00020E030E040E251E40E941F02DC01CB0147
:1026C000BC01CD010E944900DC01CB0198AB8FA772
:1026D0000FC088EC90E09EA78DA78DA59EA50197C1
:1026E000F1F79EA78DA78FA598A9019798AB8FA703
:1026F0008FA598A9009769F714C069A97AA98BA931
:102700009CA90E944900DC01CB0198AB8FA78FA543
:1027100098A99CA78BA78BA59CA50197F1F79CA7CF
:102720008BA783E066E041E00E947D0D80E090E0B1
:10273000A0E8BFE38FA398A7A9A7BAA76FA178A520
:1027400089A59AA520E030E04AEF54E40E941F02D8
:10275000DC01CB018BA39CA3ADA3BEA36BA17CA189
:102760008DA19EA120E030E040E85FE30E942504B7
:1027700088232CF481E090E09AA389A33FC06BA149
:102780007CA18DA19EA120E03FEF4FE757E40E947E
:10279000C50318164CF56FA178A589A59AA520E068
:1027A00030E040E251E40E941F02DC01CB01BC0199
:1027B000CD010E944900DC01CB019AA389A30FC07F
:1027C00088EC90E098A38F8F8F8D98A10197F1F7F7
:1027D00098A38F8F89A19AA101979AA389A389A110
:1027E0009AA1009769F714C06BA17CA18DA19EA14D
:1027F0000E944900DC01CB019AA389A389A19AA177
:102800009E8F8D8F8D8D9E8D0197F1F79E8F8D8F71
:1028100081E06AAD0E94760F80E090E0A0E8BFE31F
:10282000898F9A8FAB8FBC8F698D7A8D8B8D9C8DA4
:1028300020E030E04AEF54E40E941F02DC01CB01AB
:102840008D8B9E8BAF8BB88F6D897E898F89988D8C
:1028500020E030E040E85FE30E94250488232CF468
:1028600081E090E09C8B8B8B3FC06D897E898F8946
:10287000988D20E03FEF4FE757E40E94C5031816FC
:102880004CF5698D7A8D8B8D9C8D20E030E040E297
:1028900051E40E941F02DC01CB01BC01CD010E946A
:1028A0004900DC01CB019C8B8B8B0FC088EC90E046
:1028B0009A8B898B89899A890197F1F79A8B898BF1
:1028C0008B899C8901979C8B8B8B8B899C8900972A
:1028D00069F714C06D897E898F89988D0E9449009F
:1028E000DC01CB019C8B8B8B8B899C89988B8F8790
:1028F0008F8598890197F1F7988B8F8783E066E041
:1029000040E00E947D0D80E090E0A0E8BFE38B876F
:102910009C87AD87BE876B857C858D859E8520E0F5
:1029200030E04AEF54E40E941F02DC01CB018F83A8
:102930009887A987BA876F81788589859A8520E0ED
:1029400030E040E85FE30E94250488232CF481E016
:1029500090E09E838D833FC06F81788589859A85BD
:1029600020E03FEF4FE757E40E94C50318164CF5EF
:102970006B857C858D859E8520E030E040E251E4CA
:102980000E941F02DC01CB01BC01CD010E94490065
:10299000DC01CB019E838D830FC088EC90E09C838B
:1029A0008B838B819C810197F1F79C838B838D8135
:1029B0009E8101979E838D838D819E81009769F70B
:1029C00014C06F81788589859A850E944900DC0151
:1029D000CB019E838D838D819E819A83898389819A
:1029E0009A810197F1F79A838983EA960FB6F89452
:1029F000DEBF0FBECDBFCF91DF910895DF93CF93A0
:102A000000D0CDB7DEB79A8389830AC0E981FA8105
:102A100080810E94091389819A8101969A83898312
:102A2000E981FA818081882389F70F900F90CF91F7
:102A3000DF910895DF93CF9300D000D00F92CDB7F0
:102A4000DEB78A836B838A81282F30E03D832C8315
:102A50008C819D8181309105C1F02C813D81223096
:102A600031052CF48C819D81009761F019C02C8177
:102A70003D812230310569F08C819D818330910543
:102A800061F00EC08B8189830BC08B81805C898350
:102A900007C08B81805F898303C08B81805B8983C2
:102AA000898180680E9414110F900F900F900F90F1
:102AB0000F90CF91DF910895DF93CF9300D000D096
:102AC000CDB7DEB789836A835C834B8389816A8152
:102AD0000E941A158B819C810E94FE140F900F900A
:102AE0000F900F90CF91DF910895DF93CF93CDB7E3
:102AF000DEB762970FB6F894DEBF0FBECDBF9A8BDC
:102B0000898B89899A899E012F5F3F4FB9014AE0DD
:102B100050E00E943819CE0101960E94FE14629680
:102B20000FB6F894DEBF0FBECDBFCF91DF910895F1
:102B3000DF93CF93CDB7DEB781E00E941411CF9120
:102B4000DF910895DF93CF9300D00F92CDB7DEB71A
:102B50001B821A8219821B8243C080E060E00E94BF
:102B6000ED0E8B81982F9C5F80E0692F41E00E94E1
:102B7000F70B8B81882F90E09C012C5F3F4F81E009
:102B800090E002C0880F991F2A95E2F7809589830B
:102B900080E069810E94760F1A821CC080E06A8101
:102BA0000E94E20C882399F48A81882F90E0880F94
:102BB000991F880F991F982F8B81890F8F5F0E9413
:102BC000F5150F900F900F90CF91DF9108958A81A6
:102BD0008F5F8A838A81843008F38B818F5F8B8338
:102BE0008B81843008F4B9CFB6CFDF93CF9300D078
:102BF00000D0CDB7DEB78A8319828A81282F30E0D2
:102C00003C832B838B819C818830910509F470C0B3
:102C10002B813C81293031055CF58B819C8184308E
:102C2000910509F459C02B813C81253031059CF474
:102C30008B819C818230910509F448C02B813C81B5
:102C4000233031050CF045C08B819C81813091058A
:102C500009F439C067C02B813C812630310509F465
:102C600041C08B819C81873091050CF03EC037C0FC
:102C70002B813C812C30310509F446C08B819C812D
:102C80008D3091055CF42B813C812A303105B1F106
:102C90008B819C818B309105A4F52DC02B813C81CB
:102CA0002E303105B9F18B819C818E3091057CF1FC
:102CB0002B813C812F30310579F18B819C818031D2
:102CC000910569F12FC087E089832EC088E0898350
:102CD0002BC089E0898328C085E2898325C084E0F0
:102CE000898322C085E089831FC086E089831CC058
:102CF0008AE2898319C081E0898316C082E08983D2
:102D000013C083E0898310C08DE289830DC08DE0FC
:102D100089830AC0198208C08DE3898305C08BE2CC
:102D2000898302C08A81898389810F900F900F90D7
:102D30000F90CF91DF910895DF93CF93CDB7DEB79A
:102D40000E94F1108DED96E10E94890A0E94B00761
:102D50000E94DB0BCF91DF910895DF93CF93CDB726
:102D6000DEB72A970FB6F894DEBF0FBECDBF9E0127
:102D70002A5F3F4FCE010196B9010E94B1179E0113
:102D80002A5F3F4FCE010196B9010E940D18F7CF7F
:102D9000DF93CF930F92CDB7DEB789830E94280AC5
:102DA0009091880289819817D8F30E94AD0A1092F9
:102DB00088020F90CF91DF910895DF93CF93CDB725
:102DC000DEB7809188028F5F80938802CF91DF9178
:102DD00008950F931F93DF93CF9300D00F92CDB739
:102DE000DEB79B838A8319821CC08981282F30E03B
:102DF0008A819B818C01020F131F0E94A215F8018A
:102E000080838981982F945F81E0692F0E941A1531
:102E10008AE20E94091385E00E94C81689818F5FAB
:102E200089838981853008F30E94A2158D30E1F7EE
:102E300085E00E94C8160F900F900F90CF91DF9100
:102E40001F910F910895DF93CF9300D00F92CDB7CC
:102E5000DEB79B838A8380E290E00E94E7070E94AE
:102E6000000880319105D9F7198210C08981282F77
:102E700030E08A819B81FC01E20FF31F8081882F63
:102E800090E00E94E70789818F5F8983898185307F
:102E900068F30F900F900F90CF91DF910895DF931B
:102EA000CF9300D000D0CDB7DEB79A8389837C83DF
:102EB0006B830E94981580E063E00E941A1580E6FB
:102EC00090E00E94FE1489819A810E94E9160E9476
:102ED000981580E063E00E941A158AE790E00E944E
:102EE000FE148B819C810E94E9160E9498158981AD
:102EF0009A810E9423178B819C810E9423170F9037
:102F00000F900F900F90CF91DF910895DF93CF93A3
:102F1000CDB7DEB70E94981580E064E00E941A15D4
:102F200087E990E00E94FE1481E064E00E941A1597
:102F300086EA90E00E94FE14CF91DF910895DF931E
:102F4000CF93CDB7DEB70E94000880319105D9F745
:102F500080E290E00E94E7070E940008CF91DF9195
:102F60000895DF93CF9300D000D0CDB7DEB79A831A
:102F700089837C836B8389819A812B813C81B90110
:102F80000E944F170E949F178093890280918902A7
:102F90008131A1F40E94981580E064E00E941A1526
:102FA0008BEB90E00E94FE1485E00E94C8160F9003
:102FB0000F900F900F90CF91DF9108950E94981578
:102FC00080E064E00E941A158CEC90E00E94FE14F0
:102FD00085E00E94C816CFCFDF93CF930F92CDB775
:102FE000DEB7898380E290E00E94E7070E94000834
:102FF00080319105D9F78981882F90E00E94E707F9
:103000000F90CF91DF910895DF93CF93CDB7DEB7C7
:103010000E94A215CF91DF910895DF93CF9300D046
:1030200000D000D0CDB7DEB79A8389837C836B83D1
:103030000E9486170E9404180E94EC170E94041830
:10304000282F30E03E832D838D819E818B32910528
:1030500039F02D813E812D32310509F465C0BBC0A8
:103060000E94981580E064E00E941A1580EE90E0BE
:103070000E94FE1483E00E94C81689819A810E94F2
:10308000E91689819A810E9423170E949F178093D5
:10309000890280918902823209F50E94981580E0A8
:1030A00064E00E941A1589EF90E00E94FE140E94CD
:1030B0009F178093890280918902833389F60E9449
:1030C000981580E064E00E941A158CE091E00E945F
:1030D000FE140E949F178434E1F77DC0809189021D
:1030E000882371F40E94981580E064E00E941A150C
:1030F0008DE191E00E94FE1485E00E94C816B0CFD9
:10310000809189028F3F09F0ABCF0E94981580E033
:1031100064E00E941A158EE291E00E94FE140E9463
:103120009F178535E1F757C00E94981580E064E04D
:103130000E941A1580EE90E00E94FE1483E00E9427
:10314000C81689819A810E94E91689819A810E9414
:1031500023170E949F1780938902809189028131F1
:10316000A9F40E94981580E064E00E941A158CE38F
:1031700091E00E94FE148AE00E94C81689819A811B
:103180002B813C81B9010E94B11725C08091890231
:10319000882371F40E94981580E064E00E941A155B
:1031A00086E591E00E94FE1485E00E94C816BCCF1F
:1031B000809189028F3F09F0B7CF0E94981580E077
:1031C00064E00E941A158BE691E00E94FE140E94B2
:1031D0009F178535E1F726960FB6F894DEBF0FBE30
:1031E000CDBFCF91DF910895DF93CF93CDB7DEB7F9
:1031F0000E949C160E94AD1680E090E0CF91DF9176
:1032000008952F923F924F925F926F927F928F928A
:103210009F92AF92BF92CF92DF92EF92FF920F9365
:103220001F93CF93DF93CDB7DEB7CA1BDB0B0FB66F
:10323000F894DEBF0FBECDBF09942A88398848882C
:103240005F846E847D848C849B84AA84B984C884C2
:10325000DF80EE80FD800C811B81AA81B981CE0FB9
:10326000D11D0FB6F894DEBF0FBECDBFED0108959E
:10327000FB019F01E8944230C4F04532B4F44A3077
:1032800029F497FB1EF4909581959F4F642F772723
:103290000E946919805D8A330CF0895D8193CB01AE
:1032A0000097A1F716F45DE251931082C9010C94C6
:1032B0005919DC01FC01672F71917723E1F73297EF
:1032C00004C07C916D9370836291AE17BF07C8F301
:1032D0000895AA1BBB1B51E107C0AA1FBB1FA6175D
:1032E000B70710F0A61BB70B881F991F5A95A9F7AF
:0E32F00080959095BC01CD010895F894FFCF14
:1032FE00506C6561736520456E7465722054686507
:10330E002050617373776F726400506C65617365E2
:10331E002052652D456E746572205468652050618B
:10332E007373776F726400282B293A204F70656E85
:10333E0020446F6F7200282D293A204368616E6712
:10334E00652050617373776F726400436F7272659C
:10335E0063742050617373776F726400496E2043FB
:10336E006F72726563742050617373776F7264004D
:10337E00506C6561736520456E7465722050617383
:10338E0073776F7264203A2000446F6F72206973F6
:10339E00204F70656E696E672E2E2E00636C6F73F4
:1033AE00696E672054686520446F6F720057726FA4
:1033BE006E672050617373776F72642021005468BA
:1033CE006965662021212121212121004368616E3A
:1033DE0067696E67205468652050617373776F72EA
:1033EE00642E2E2E2E00496E636F727265637420EA
:1033FE0050617373776F72642021004552524F52A1
:10340E002021000000000000000000000102020365
:10341E00030303040404040404040405050505055C
:10342E000505050505050505050505060606060639
:10343E00060606060606060606060606060606061E
:10344E000606060606060606060606070707070709
:10345E0007070707070707070707070707070707EE
:10346E0007070707070707070707070707070707DE
:10347E0007070707070707070707070707070707CE
:10348E0007070707070707070707070808080808B9
:10349E00080808080808080808080808080808089E
:1034AE00080808080808080808080808080808088E
:1034BE00080808080808080808080808080808087E
:1034CE00080808080808080808080808080808086E
:1034DE00080808080808080808080808080808085E
:1034EE00080808080808080808080808080808084E
:1034FE00080808080808080808080808080808083E
:0C350E0008080808080808080808080059
:00000001FF
