:100000000C942A000C9447000C9447000C94470071
:100010000C94F90A0C94C60A0C9447000C94600ADC
:100020000C94930A0C942D0A0C94FA090C94C709A9
:100030000C9447000C94B7060C941D070C94EA0628
:100040000C9447000C9447000C9447000C946308F0
:100050000C94470011241FBECFE5D8E0DEBFCDBF12
:1000600011E0A8E6B1E001C01D92A837B107E1F7A1
:1000700011E0A0E6B0E0EAE1FBE202C005900D92DB
:10008000A836B107D9F70E9447150C948B150C942C
:100090000000EF92FF920F931F937B018C0120E0F1
:1000A00030E040E05FE40E94C50388238CF0C80183
:1000B000B70120E030E040E05FE40E94C1010E940F
:1000C000F5039B01AC01205030404040504806C031
:1000D000C801B7010E94F5039B01AC01B901CA0137
:1000E0001F910F91FF90EF900895A0E0B0E0EBE733
:1000F000F0E00C945415DC012B01FA019C91923034
:1001000008F439C1EB018881823008F433C194309E
:1001100069F4843009F02FC111969C91119789815F
:10012000981709F428C1A0E6B0E025C1843009F48D
:1001300021C18230A9F4923009F01DC19A01AD01AC
:1001400088E0EA010990AE01E90109929E0181501F
:10015000C1F7E201898111969C918923818308C1AD
:10016000923009F407C112962D903C901397EB0141
:100170008A819B811496AD90BD90CD90DC901797AD
:10018000EC80FD800E811F819101281B390BB90184
:1001900037FF04C066277727621B730B6032710537
:1001A0000CF061C0121613066CF537014801062EDB
:1001B00004C096948794779467940A94D2F721E0C8
:1001C00030E040E050E004C0220F331F441F551FB1
:1001D0006A95D2F721503040404050402E213F21B7
:1001E00040235123211531054105510521F021E01E
:1001F00030E040E050E079018A01E628F72808293C
:1002000019293CC0232BD1F1260E371E350146019A
:10021000062E04C096948794779467940A94D2F734
:1002200021E030E040E050E004C0220F331F441FC3
:10023000551F6A95D2F721503040404050402A2146
:100240003B214C215D21211531054105510521F04E
:1002500021E030E040E050E059016A01A628B728CB
:10026000C828D9280BC0821593052CF01C01AA249C
:10027000BB24650103C0EE24FF24870111969C91E5
:10028000D20111968C91981709F445C0992339F041
:10029000A80197012A193B094C095D0906C0A6016E
:1002A00095012E193F09400B510B57FD08C01182D3
:1002B0003382228224833583468357831DC081E0A5
:1002C00081833382228288279927DC01821B930B4A
:1002D000A40BB50B84839583A683B7830DC0220F2F
:1002E000331F441F551F24833583468357838281E0
:1002F000938101979383828324813581468157813D
:10030000DA01C9010197A109B1098F5F9F4FAF4F72
:10031000BF4328F30BC0918333822282EA0CFB1C7B
:100320000C1D1D1DE482F5820683178383E0808304
:10033000248135814681578157FF1AC0C901AA27F8
:1003400097FDA095BA2F81709070A070B0705695EF
:10035000479537952795822B932BA42BB52B848318
:100360009583A683B7838281938101969383828349
:10037000DF0101C0D201CD01CDB7DEB7E2E10C94BF
:100380007015A0E2B0E0E7ECF1E00C946015698331
:100390007A838B839C832D833E834F835887E9E048
:1003A000EE2EF12CEC0EFD1ECE010196B7010E943F
:1003B000E6058E010F5E1F4FCE010596B8010E9423
:1003C000E6058A8991E089278A8BC701B801AE01C9
:1003D000475E5F4F0E9475000E941105A096E6E0FF
:1003E0000C947C15A0E2B0E0E8EFF1E00C9460150D
:1003F00069837A838B839C832D833E834F835887C5
:10040000F9E0EF2EF12CEC0EFD1ECE010196B701A6
:100410000E94E6058E010F5E1F4FCE010596B801C2
:100420000E94E605C701B801AE01475E5F4F0E941A
:1004300075000E941105A096E6E00C947C15A0E2E0
:10044000B0E0E5E2F2E00C94541569837A838B8383
:100450009C832D833E834F835887CE010196BE0136
:10046000675F7F4F0E94E605CE010596BE016F5E75
:100470007F4F0E94E6059985923088F08989823005
:10048000C8F0943019F4823051F404C0843029F457
:10049000923081F480E690E0C6C0923049F420E0CA
:1004A0009A858A89981321E02A87CE010996BBC0D4
:1004B000823049F420E09A858A89981321E02A8BBA
:1004C000CE014196B0C02D843E844F8458886D88FB
:1004D0007E888F88988CEE24FF248701AA24BB2471
:1004E000650140E050E060E070E0E0E0F0E0C10174
:1004F00081709070892BE9F0E60CF71C081D191D1E
:100500009A01AB012A0D3B1D4C1D5D1D80E090E062
:10051000A0E0B0E0E614F7040805190520F481E036
:1005200090E0A0E0B0E0BA01A901480F591F6A1F8E
:100530007B1FAA0CBB1CCC1CDD1C97FE08C081E0F5
:1005400090E0A0E0B0E0A82AB92ACA2ADB2A3196B6
:10055000E032F10549F0660C771C881C991C569412
:10056000479437942794C3CFFA85EA892B893C892D
:100570008B859C85280F391F2E5F3F4F17C0CA01FE
:1005800081709070892B61F016950795F794E79428
:1005900080E090E0A0E0B0E8E82AF92A0A2B1B2BC3
:1005A00076956795579547952F5F3F4F77FDE7CF36
:1005B0000CC0440F551F661F771F17FD4160EE0CDE
:1005C000FF1C001F111F21503040403090E05907A0
:1005D00090E0690790E4790760F32B8F3C8FDB0193
:1005E000CA018F779070A070B07080349105A1051A
:1005F000B10561F447FD0AC0E114F10401051105DC
:1006000029F0405C5F4F6F4F7F4F40781A8EFE1786
:1006100011F081E08A8F4D8F5E8F6F8F78A383E01A
:10062000898FCE0149960E941105A096E2E10C94B3
:100630007015A8E1B0E0EFE1F3E00C945C1569837C
:100640007A838B839C832D833E834F835887B9E0C5
:10065000EB2EF12CEC0EFD1ECE010196B7010E948F
:10066000E6058E010F5E1F4FCE010596B8010E9470
:10067000E6052985223008F47EC03989323010F42D
:10068000B8017CC08A859A8989278A87243011F02D
:10069000223031F4231709F06EC060E670E06EC0BE
:1006A000343039F41D861E861F86188A1C861B86E8
:1006B00004C0323021F484E08987B7015FC02B8504
:1006C0003C858B899C89281B390B3C872B87ED84C3
:1006D000FE840F851889AD88BE88CF88D88CEA142F
:1006E000FB040C051D0540F4EE0CFF1C001F111F40
:1006F000215030403C872B8720E030E040E050E044
:1007000080E090E0A0E0B0E460E070E0EA14FB0478
:100710000C051D0540F0282B392B4A2B5B2BEA18C2
:10072000FB080C091D09B695A79597958795EE0CC2
:10073000FF1C001F111F6F5F7F4F6F31710531F775
:10074000DA01C9018F779070A070B0708034910584
:10075000A105B10561F427FD0AC0E114F10401050A
:10076000110529F0205C3F4F4F4F5F4F20782D87B8
:100770003E874F87588BBE01675F7F4FCB010E943A
:1007800011056896EAE00C947815A8E1B0E0EBEC6E
:10079000F3E00C94601569837A838B839C832D83AB
:1007A0003E834F83588789E0E82EF12CEC0EFD1E26
:1007B000CE010196B7010E94E6058E010F5E1F4F24
:1007C000CE010596B8010E94E6058985823040F089
:1007D0008989823028F0C701B8010E945E0601C0F5
:1007E0008FEF6896E6E00C947C15ACE0B0E0EBEFA0
:1007F000F3E00C94641569837A838B839C83CE0128
:100800000196BE016B5F7F4F0E94E6058D818230AD
:1008100061F1823050F1843021F48E81882351F1CE
:100820002EC02F81388537FD20C06E812F313105D4
:100830001CF06623F9F023C08EE190E0821B930B3D
:1008400029853A854B855C8504C056954795379533
:1008500027958A95D2F76623B1F05095409530954B
:1008600021953F4F4F4F5F4F0EC020E030E040E0FA
:1008700050E009C02FEF3FEF4FEF5FE704C020E0EB
:1008800030E040E050E8B901CA012C96E2E00C9457
:100890008015A8E0B0E0EFE4F4E00C945C157B0177
:1008A0008C01611571058105910519F482E0898338
:1008B00060C083E089838EE1C82ED12CDC82CB829C
:1008C000ED82FE820F831887C801B7010E94C2041F
:1008D000FC013197F7FF3BC0222733272E1B3F0B2C
:1008E00057016801022E04C0D694C794B794A79408
:1008F0000A94D2F740E050E060E070E081E090E0E0
:10090000A0E0B0E004C0880F991FAA1FBB1F2A9562
:10091000D2F70197A109B1098E219F21A023B1230C
:100920000097A105B10521F041E050E060E070E0E2
:100930004A295B296C297D294D835E836F837887E3
:100940008EE190E08E1B9F0B9C838B8312C03097AF
:1009500081F00E2E04C0EE0CFF1C001F111F0A9424
:10096000D2F7ED82FE820F831887CE1ADF0ADC826F
:10097000CB821A82CE0101960E9411052896EAE0E8
:100980000C947815EF92FF920F931F937B018C01CB
:1009900080E0E81680E0F80681E0080780E01807AC
:1009A00088F48FEFE816F1040105110531F028F005
:1009B00088E090E0A0E0B0E017C080E090E0A0E028
:1009C000B0E012C080E0E81680E0F80680E008079A
:1009D00081E0180728F088E190E0A0E0B0E004C0D2
:1009E00080E190E0A0E0B0E020E230E040E050E0C4
:1009F000281B390B4A0B5B0B04C016950795F7941F
:100A0000E7948A95D2F7F701E859FF4F8081281BB8
:100A1000310941095109C9011F910F91FF90EF90D0
:100A20000895DF92EF92FF920F931F93FC01E480F1
:100A3000F58006811781D1808081823048F480E082
:100A400090E0A0E1B0E0E82AF92A0A2B1B2BA5C010
:100A5000843009F49FC0823021F4EE24FF24870102
:100A600005C0E114F1040105110519F4E0E0F0E01E
:100A700096C0628173819FEF623879070CF05BC08A
:100A800022E83FEF261B370B2A3131052CF020E0FE
:100A900030E040E050E02AC0B801A701022E04C0B7
:100AA00076956795579547950A94D2F781E090E03F
:100AB000A0E0B0E004C0880F991FAA1FBB1F2A95B1
:100AC000D2F70197A109B1098E219F21A023B1235B
:100AD0000097A105B10521F081E090E0A0E0B0E031
:100AE0009A01AB01282B392B4A2B5B2BDA01C90168
:100AF0008F779070A070B07080349105A105B1051A
:100B000039F427FF09C0205C3F4F4F4F5F4F04C0AF
:100B1000215C3F4F4F4F5F4FE0E0F0E02030A0E01E
:100B20003A07A0E04A07A0E45A0710F0E1E0F0E03D
:100B300079018A0127C06038710564F5FB01E1582D
:100B4000FF4FD801C7018F779070A070B0708034CC
:100B50009105A105B10539F4E7FE0DC080E490E0F0
:100B6000A0E0B0E004C08FE390E0A0E0B0E0E80EC9
:100B7000F91E0A1F1B1F17FF05C016950795F7944E
:100B8000E794319687E016950795F794E7948A9550
:100B9000D1F705C0EE24FF248701EFEFF0E06E2FC0
:100BA000679566276795902F9F77D794DD24D79414
:100BB0008E2F8695492F462B582F5D29B701CA01E4
:100BC0001F910F91FF90EF90DF900895FC01DB01E2
:100BD000408151812281622F6F7770E0221F22278E
:100BE000221F9381892F880F822B282F30E0991F95
:100BF0009927991F11969C93119721153105A9F5F5
:100C0000411551056105710511F482E037C082E894
:100C10009FEF13969C938E9312979A01AB0167E016
:100C2000220F331F441F551F6A95D1F783E08C9321
:100C30000DC0220F331F441F551F12968D919C919A
:100C40001397019713969C938E931297203080E010
:100C5000380780E0480780E4580758F314962D932E
:100C60003D934D935C93179708952F3F310579F489
:100C7000411551056105710519F484E08C930895BF
:100C800064FF03C081E08C9312C01C9210C02F57E8
:100C9000304013963C932E93129783E08C9387E019
:100CA000440F551F661F771F8A95D1F770641496FD
:100CB0004D935D936D937C93179708951F93DC017B
:100CC000FB019C91923008F447C08081823008F487
:100CD00043C0943051F411961C91843099F5818170
:100CE000682F70E0611B71093FC0843021F09230A1
:100CF00031F48230B9F18181882389F12DC01196B8
:100D00001C9111978230F1F081811817D9F4129655
:100D10002D913C911397828193818217930794F0D0
:100D200028173907BCF014968D919D910D90BC91B8
:100D3000A02D2481358146815781281739074A071C
:100D40005B0718F4112341F00AC082179307A40728
:100D5000B50740F4112319F061E070E005C06FEFB2
:100D60007FEF02C060E070E0CB011F9108951F92F9
:100D70000F920FB60F9211242F933F934F935F93CF
:100D80006F937F938F939F93AF93BF93EF93FF9353
:100D9000DF93CF93CDB7DEB7809168019091690161
:100DA000009729F0E0916801F09169010995CF91D0
:100DB000DF91FF91EF91BF91AF919F918F917F91C3
:100DC0006F915F914F913F912F910F900FBE0F90B8
:100DD0001F9018951F920F920FB60F9211242F9308
:100DE0003F934F935F936F937F938F939F93AF93B3
:100DF000BF93EF93FF93DF93CF93CDB7DEB780918F
:100E00006A0190916B01009729F0E0916A01F091DD
:100E10006B010995CF91DF91FF91EF91BF91AF9158
:100E20009F918F917F916F915F914F913F912F9102
:100E30000F900FBE0F901F9018951F920F920FB634
:100E40000F9211242F933F934F935F936F937F9350
:100E50008F939F93AF93BF93EF93FF93DF93CF93C2
:100E6000CDB7DEB780916C0190916D01009729F0AC
:100E7000E0916C01F0916D010995CF91DF91FF91A7
:100E8000EF91BF91AF919F918F917F916F915F9102
:100E90004F913F912F910F900FBE0F901F9018957B
:100EA000DF93CF9300D000D00F92CDB7DEB71D8275
:100EB0001C821B821A8219828D8182608D8387E653
:100EC00090E09A8389838B8186608B83EBE2F0E0EC
:100ED0008D818083EAE2F0E08C8188618083E0E4A8
:100EE000F0E08B8180688083E0E4F0E089819A8182
:100EF000892F99278083E9E2F0E0898180830F9030
:100F00000F900F900F900F90CF91DF910895DF9386
:100F1000CF9300D0CDB7DEB79A838983EBE2F0E0C0
:100F20008081882F90E0807290700097B9F3ECE296
:100F3000F0E0898180830F900F90CF91DF91089529
:100F4000DF93CF9300D0CDB7DEB71A821982EBE2E0
:100F5000F0E080818823DCF7ECE2F0E08081282F4C
:100F600030E089819A81822B932B9A8389838981AE
:100F70009A810F900F90CF91DF910895DF93CF93D7
:100F800000D00F92CDB7DEB79B838A83198211C040
:100F90008981282F30E08A819B81FC01E20FF31FB9
:100FA0008081282F30E089818F5F8983C9010E9469
:100FB00087078981282F30E08A819B81FC01E20F1D
:100FC000F31F8081882321F70F900F900F90CF910E
:100FD000DF9108950F931F93DF93CF9300D00F926B
:100FE000CDB7DEB79B838A8319828981282F30E0B1
:100FF0008A819B818C01020F131F0E94A007F801B8
:1010000080830FC089818F5F89838981282F30E099
:101010008A819B818C01020F131F0E94A007F80197
:1010200080838981282F30E08A819B81FC01E20F37
:10103000F31F80818D3031F78981282F30E08A813C
:101040009B81FC01E20FF31F10820F900F900F9015
:10105000CF91DF911F910F910895DF93CF9300D02F
:10106000CDB7DEB79A83898389819A81909369018C
:10107000809368010F900F90CF91DF910895DF93D7
:10108000CF9300D0CDB7DEB79A83898389819A81C7
:1010900090936B0180936A010F900F90CF91DF9135
:1010A0000895DF93CF9300D0CDB7DEB79A838983BD
:1010B00089819A8190936D0180936C010F900F90BC
:1010C000CF91DF9108951F920F920FB60F921124C6
:1010D0002F933F934F935F936F937F938F939F9340
:1010E000AF93BF93EF93FF93DF93CF93CDB7DEB76B
:1010F00080916E0190916F01009729F0E0916E014F
:10110000F0916F010995CF91DF91FF91EF91BF9120
:10111000AF919F918F917F916F915F914F913F918F
:101120002F910F900FBE0F901F901895DF93CF93C4
:10113000CDB7DEB7E1E2F0E01082E0E2F0E082E07D
:101140008083A6E5B0E0E6E5F0E0808181608C93E5
:10115000E2E2F0E084E48083E6E5F0E084E080838E
:10116000CF91DF910895DF93CF930F92CDB7DEB784
:10117000E6E5F0E084EA8083E6E5F0E0808188231C
:10118000DCF70E94AA09883019F081E0898301C048
:10119000198289810F90CF91DF910895DF93CF93CA
:1011A0000F92CDB7DEB7E6E5F0E084EA8083E6E5AE
:1011B000F0E080818823DCF70E94AA09803119F0D1
:1011C00082E0898301C0198289810F90CF91DF91DC
:1011D0000895DF93CF9300D00F92CDB7DEB7898308
:1011E0006A838A81882329F4E3E2F0E0898180839D
:1011F00008C08A81813029F4E3E2F0E089818F5FC1
:101200008083E6E5F0E084E88083E6E5F0E0808135
:101210008823DCF70E94AA09883119F483E08B83C4
:1012200017C00E94AA09803219F484E08B8310C091
:101230000E94AA09803419F485E08B8309C00E94BA
:10124000AA09883419F486E08B8302C087E08B8377
:101250008B810F900F900F90CF91DF910895DF93C6
:10126000CF9300D000D00F92CDB7DEB79A83898399
:101270006B834C838B81882301F5A3E2B0E0E98185
:10128000FA8180818C93E6E5F0E084E88083E6E5EE
:10129000F0E080818823DCF70E94AA09883219F4E3
:1012A00088E08D833AC00E94AA09803319F489E04E
:1012B0008D8333C08AE08D8330C08B81813059F5B6
:1012C0008C81882329F4E6E5F0E084EC808307C074
:1012D0008C81813021F4E6E5F0E084E88083E6E566
:1012E000F0E080818823DCF7E3E2F0E08081E981AF
:1012F000FA8180830E94AA09803519F48BE08D83DE
:101300000CC00E94AA09883519F48CE08D8305C0B1
:101310008DE08D8302C08EE08D838D810F900F90C4
:101320000F900F900F90CF91DF910895DF93CF939F
:10133000CDB7DEB7E6E5F0E084E98083E6E5F0E0EE
:101340008081882F90E0807190700097B9F7CF91DD
:10135000DF910895DF93CF93CDB7DEB7E1E2F0E000
:101360008081887FCF91DF910895DF93CF9300D064
:10137000CDB7DEB79A83898389819A8190936F0173
:1013800080936E010F900F90CF91DF9108951F927F
:101390000F920FB60F9211242F933F934F935F93A9
:1013A0006F937F938F939F93AF93BF93EF93FF932D
:1013B000DF93CF93CDB7DEB780917001909171012B
:1013C000009729F0E0917001F09171010995CF919A
:1013D000DF91FF91EF91BF91AF919F918F917F919D
:1013E0006F915F914F913F912F910F900FBE0F9092
:1013F0001F9018951F920F920FB60F9211242F93E2
:101400003F934F935F936F937F938F939F93AF938C
:10141000BF93EF93FF93DF93CF93CDB7DEB7809168
:10142000700190917101009729F0E0917001F091A5
:1014300071010995CF91DF91FF91EF91BF91AF912C
:101440009F918F917F916F915F914F913F912F91DC
:101450000F900FBE0F901F9018951F920F920FB60E
:101460000F9211242F933F934F935F936F937F932A
:101470008F939F93AF93BF93EF93FF93DF93CF939C
:10148000CDB7DEB78091720190917301009729F07A
:10149000E0917201F09173010995CF91DF91FF9175
:1014A000EF91BF91AF919F918F917F916F915F91DC
:1014B0004F913F912F910F900FBE0F901F90189555
:1014C0001F920F920FB60F9211242F933F934F93B9
:1014D0005F936F937F938F939F93AF93BF93EF939C
:1014E000FF93DF93CF93CDB7DEB7809172019091D8
:1014F0007301009729F0E0917201F0917301099551
:10150000CF91DF91FF91EF91BF91AF919F918F911B
:101510007F916F915F914F913F912F910F900FBEEF
:101520000F901F9018951F920F920FB60F921124D3
:101530002F933F934F935F936F937F938F939F93DB
:10154000AF93BF93EF93FF93DF93CF93CDB7DEB706
:101550008091720190917301009729F0E0917201DE
:10156000F09173010995CF91DF91FF91EF91BF91B8
:10157000AF919F918F917F916F915F914F913F912B
:101580002F910F900FBE0F901F9018951F920F92E2
:101590000FB60F9211242F933F934F935F936F9346
:1015A0007F938F939F93AF93BF93EF93FF93DF93BB
:1015B000CF93CDB7DEB780917401909175010097FC
:1015C00029F0E0917401F09175010995CF91DF91B7
:1015D000FF91EF91BF91AF919F918F917F916F910B
:1015E0005F914F913F912F910F900FBE0F901F90E1
:1015F00018951F920F920FB60F9211242F933F93BD
:101600004F935F936F937F938F939F93AF93BF930A
:10161000EF93FF93DF93CF93CDB7DEB78091740143
:1016200090917501009729F0E0917401F091750196
:101630000995CF91DF91FF91EF91BF91AF919F916C
:101640008F917F916F915F914F913F912F910F906B
:101650000FBE0F901F901895DF93CF93CDB7DEB7D5
:10166000AFE4B0E0EFE4F0E080818C7F8C93AEE4F7
:10167000B0E0EEE4F0E08081877E8C93AFE4B0E0F0
:10168000EFE4F0E080818C608C93AEE4B0E0EEE4B7
:10169000F0E0808188608C93AEE4B0E0EEE4F0E0AE
:1016A0008081887F8C93AEE4B0E0EEE4F0E080814E
:1016B00085608C93ECE4F0E011821082EAE4F0E0C3
:1016C00084E89EE191838083E8E4F0E01182108257
:1016D0000E946D0BCF91DF910895DF93CF93CDB72B
:1016E000DEB7A9E5B0E0E9E5F0E0808180618C93A8
:1016F000CF91DF910895DF93CF9300D0CDB7DEB7C0
:101700009A83898389819A81909371018093700172
:101710000F900F90CF91DF910895DF93CF9300D07A
:10172000CDB7DEB79A83898389819A8190937301BB
:10173000809372010F900F90CF91DF910895DF9306
:10174000CF9300D0CDB7DEB79A83898389819A8100
:1017500090937501809374010F900F90CF91DF915A
:101760000895DF93CF930F92CDB7DEB78983898138
:10177000882321F4E3E5F0E0108210C089818130F4
:1017800039F4EFE4F0E01082EEE4F0E0108206C0FD
:101790008981823019F4E5E4F0E010820F90CF9156
:1017A000DF9108950F931F93DF93CF930F92CDB7DF
:1017B000DEB78983E2E5F0E010820CE510E0898174
:1017C000882F90E0A0E0B0E0BC01CD010E94490468
:1017D000DC01CB01BC01CD0120E030E048EC52E45B
:1017E0000E941903DC01CB01BC01CD0120E030E0F7
:1017F0004FE753E40E941F02DC01CB01BC01CD0185
:101800000E944900DC01CB01F8018083A3E5B0E030
:10181000E3E5F0E08081877B8C93A3E5B0E0E3E52E
:10182000F0E0808180648C93A3E5B0E0E3E5F0E034
:1018300080818F7C8C9381E063E041E00E94090D00
:10184000A3E5B0E0E3E5F0E0808180628C93A3E55E
:10185000B0E0E3E5F0E08081887F8C93A3E5B0E021
:10186000E3E5F0E0808183608C930F90CF91DF916E
:101870001F910F9108950F931F93DF93CF9300D083
:10188000CDB7DEB79A838983ECE4F0E01182108251
:10189000EAE4F0E084E89EE19183808308E410E0CC
:1018A00089819A81CC01A0E0B0E0BC01CD010E9409
:1018B0004904DC01CB01BC01CD0120E030E048EC63
:1018C00052E40E941903DC01CB01BC01CD0120E0F0
:1018D0003FEF4FE757E40E941F02DC01CB01BC0140
:1018E000CD010E944900DC01CB01F8019183808386
:1018F00083E064E041E00E94090DAEE4B0E0EEE474
:10190000F0E08081887F8C93AEE4B0E0EEE4F0E01C
:10191000808185608C930F900F90CF91DF911F9104
:101920000F9108950F931F93DF93CF930F92CDB72D
:10193000DEB78983E4E4F0E0108203E410E08981FB
:10194000882F90E0A0E0B0E0BC01CD010E944904E6
:10195000DC01CB01BC01CD0120E030E048EC52E4D9
:101960000E941903DC01CB01BC01CD0120E030E075
:101970004FE753E40E941F02DC01CB01BC01CD0103
:101980000E944900DC01CB01F8018083A5E4B0E0AE
:10199000E5E4F0E080818F7C8C9383E067E041E0B8
:1019A0000E94090DA5E4B0E0E5E4F0E080818062EA
:1019B0008C93A5E4B0E0E5E4F0E08081887F8C932F
:1019C000A5E4B0E0E5E4F0E0808187608C930F90BF
:1019D000CF91DF911F910F910895DF93CF93CDB7F2
:1019E000DEB7AFE5B0E0EFE5F0E0808180688C9392
:1019F000CF91DF910895DF93CF93CDB7DEB7AFE5F9
:101A0000B0E0EFE5F0E080818F778C93CF91DF91AC
:101A10000895DF93CF9300D000D00F92CDB7DEB7FB
:101A200089836A834B838981843008F0D5C08A8199
:101A3000883008F0D1C08981282F30E03D832C8385
:101A40008C819D818130910509F443C02C813D81B9
:101A5000223031052CF48C819D81009771F0BCC03F
:101A60002C813D812230310509F45FC08C819D813C
:101A70008330910509F485C0AFC08B818130A1F41A
:101A8000AAE3B0E0EAE3F0E08081482F8A81282FC2
:101A900030E081E090E0022E02C0880F991F0A9486
:101AA000E2F7842B8C9398C0AAE3B0E0EAE3F0E07D
:101AB0008081482F8A81282F30E081E090E0022E3B
:101AC00002C0880F991F0A94E2F7809584238C93B3
:101AD00083C08B818130A1F4A7E3B0E0E7E3F0E0BD
:101AE0008081482F8A81282F30E081E090E0022E0B
:101AF00002C0880F991F0A94E2F7842B8C936CC064
:101B0000A7E3B0E0E7E3F0E08081482F8A81282F47
:101B100030E081E090E0022E02C0880F991F0A9405
:101B2000E2F7809584238C9357C08B818130A1F498
:101B3000A4E3B0E0E4E3F0E08081482F8A81282F1D
:101B400030E081E090E0022E02C0880F991F0A94D5
:101B5000E2F7842B8C9340C0A4E3B0E0E4E3F0E030
:101B60008081482F8A81282F30E081E090E0022E8A
:101B700002C0880F991F0A94E2F7809584238C9302
:101B80002BC08B818130A1F4A1E3B0E0E1E3F0E070
:101B90008081482F8A81282F30E081E090E0022E5A
:101BA00002C0880F991F0A94E2F7842B8C9314C00B
:101BB000A1E3B0E0E1E3F0E08081482F8A81282FA3
:101BC00030E081E090E0022E02C0880F991F0A9455
:101BD000E2F7809584238C930F900F900F900F90D5
:101BE0000F90CF91DF910895DF93CF9300D000D075
:101BF0000F92CDB7DEB78A836B8319828A818430D6
:101C000008F084C08B81883008F080C08A81282F3A
:101C100030E03D832C834C815D814130510579F169
:101C20008C819D818230910534F42C813D81211578
:101C3000310569F06BC04C815D8142305105B9F1CD
:101C40008C819D818330910509F449C05FC0E9E32F
:101C5000F0E08081282F30E08B81882F90E0A9016F
:101C600002C0559547958A95E2F7CA018170907038
:101C7000882319F081E0898349C0198247C0E6E3CF
:101C8000F0E08081282F30E08B81882F90E0A9013F
:101C900002C0559547958A95E2F7CA018170907008
:101CA000882319F081E0898331C019822FC0E3E3D2
:101CB000F0E08081282F30E08B81882F90E0A9010F
:101CC00002C0559547958A95E2F7CA0181709070D8
:101CD000882319F081E0898319C0198217C0E0E3D5
:101CE000F0E08081282F30E08B81882F90E0A901DF
:101CF00002C0559547958A95E2F7CA0181709070A8
:101D0000882319F081E0898301C0198289810F90AD
:101D10000F900F900F900F90CF91DF910895DF9368
:101D2000CF9300D000D00F92CDB7DEB789836A83FE
:101D30004B838981843008F0D5C08A81883008F0CF
:101D4000D1C08981282F30E03D832C838C819D81F7
:101D50008130910509F443C02C813D812230310549
:101D60002CF48C819D81009771F0BCC02C813D8149
:101D70002230310509F45FC08C819D81833091054B
:101D800009F485C0AFC08B818130A1F4ABE3B0E032
:101D9000EBE3F0E08081482F8A81282F30E081E05A
:101DA00090E0022E02C0880F991F0A94E2F7842B5C
:101DB0008C9398C0ABE3B0E0EBE3F0E08081482F78
:101DC0008A81282F30E081E090E0022E02C0880F47
:101DD000991F0A94E2F7809584238C9383C08B81AA
:101DE0008130A1F4A8E3B0E0E8E3F0E08081482F7F
:101DF0008A81282F30E081E090E0022E02C0880F17
:101E0000991F0A94E2F7842B8C936CC0A8E3B0E08E
:101E1000E8E3F0E08081482F8A81282F30E081E0DC
:101E200090E0022E02C0880F991F0A94E2F7809575
:101E300084238C9357C08B818130A1F4A5E3B0E05B
:101E4000E5E3F0E08081482F8A81282F30E081E0AF
:101E500090E0022E02C0880F991F0A94E2F7842BAB
:101E60008C9340C0A5E3B0E0E5E3F0E08081482F2B
:101E70008A81282F30E081E090E0022E02C0880F96
:101E8000991F0A94E2F7809584238C932BC08B8151
:101E90008130A1F4A2E3B0E0E2E3F0E08081482FDA
:101EA0008A81282F30E081E090E0022E02C0880F66
:101EB000991F0A94E2F7842B8C9314C0A2E3B0E03C
:101EC000E2E3F0E08081482F8A81282F30E081E032
:101ED00090E0022E02C0880F991F0A94E2F78095C5
:101EE00084238C930F900F900F900F900F90CF91B1
:101EF000DF910895DF93CF9300D000D0CDB7DEB748
:101F000089836A838981843008F072C08A8188302D
:101F100008F06EC08981282F30E03C832B838B81B1
:101F20009C818130910549F12B813C812230310522
:101F30002CF48B819C81009761F05AC02B813C81ED
:101F40002230310571F18B819C8183309105E9F15B
:101F50004FC0ABE3B0E0EBE3F0E08081482F8A8133
:101F6000282F30E081E090E0022E02C0880F991FF8
:101F70000A94E2F784278C933BC0A8E3B0E0E8E33F
:101F8000F0E08081482F8A81282F30E081E090E0C6
:101F9000022E02C0880F991F0A94E2F784278C93BF
:101FA00027C0A5E3B0E0E5E3F0E08081482F8A8117
:101FB000282F30E081E090E0022E02C0880F991FA8
:101FC0000A94E2F784278C9313C0A2E3B0E0E2E323
:101FD000F0E08081482F8A81282F30E081E090E076
:101FE000022E02C0880F991F0A94E2F784278C936F
:101FF0000F900F900F900F90CF91DF910895DF9386
:10200000CF9300D000D0CDB7DEB789836A838981B2
:10201000843090F58981282F30E03C832B838B819D
:102020009C8181309105D1F02B813C81223031059A
:102030002CF48B819C81009761F01EC02B813C8128
:102040002230310581F08B819C818330910581F0B4
:1020500013C0EAE3F0E08A8180830EC0E7E3F0E09A
:102060008A81808309C0E4E3F0E08A81808304C030
:10207000E1E3F0E08A8180830F900F900F900F9042
:10208000CF91DF910895DF93CF9300D000D0CDB7EB
:10209000DEB78A8319828A81843090F58A81282F5D
:1020A00030E03C832B838B819C8181309105D1F082
:1020B0002B813C81223031052CF48B819C8100974F
:1020C00061F01EC02B813C812230310581F08B8173
:1020D0009C818330910581F013C0E9E3F0E08081B9
:1020E00089830EC0E6E3F0E08081898309C0E3E3E1
:1020F000F0E08081898304C0E0E3F0E0808189839F
:1021000089810F900F900F900F90CF91DF910895DC
:10211000DF93CF9300D000D0CDB7DEB789836A8339
:102120008981843090F58981282F30E03C832B838E
:102130008B819C8181309105D1F02B813C812230B3
:1021400031052CF48B819C81009761F01EC02B819E
:102150003C812230310581F08B819C818330910557
:1021600081F013C0EBE3F0E08A8180830EC0E8E3E6
:10217000F0E08A81808309C0E5E3F0E08A81808312
:1021800004C0E2E3F0E08A8180830F900F900F900B
:102190000F90CF91DF910895DF93CF9300D00F92EE
:1021A000CDB7DEB789838981843008F03EC089814C
:1021B000282F30E03B832A838A819B8181309105DF
:1021C000E9F02A813B81223031052CF48A819B8100
:1021D000009761F02AC02A813B8122303105B1F09D
:1021E0008A819B8183309105C9F01FC0ABE3B0E0C9
:1021F000EBE3F0E0808180958C9317C0A8E3B0E01A
:10220000E8E3F0E0808180958C930FC0A5E3B0E017
:10221000E5E3F0E0808180958C9307C0A2E3B0E015
:10222000E2E3F0E0808180958C930F900F900F9007
:10223000CF91DF910895DF93CF9300D000D0CDB739
:10224000DEB789836A838981843008F061C08A811E
:102250008F708A838981282F30E03C832B838B8188
:102260009C818130910529F12B813C8122303105FF
:102270002CF48B819C81009761F04AC02B813C81BA
:102280002230310531F18B819C818330910589F1B8
:102290003FC0ABE3B0E0EBE3F0E08081807F8C9364
:1022A000ABE3B0E0EBE3F0E090818A81892B8C9383
:1022B0002FC0A8E3B0E0E8E3F0E08081807F8C935A
:1022C000A8E3B0E0E8E3F0E090818A81892B8C9369
:1022D0001FC0A5E3B0E0E5E3F0E08081807F8C9350
:1022E000A5E3B0E0E5E3F0E090818A81892B8C934F
:1022F0000FC0A2E3B0E0E2E3F0E08081807F8C9346
:10230000A2E3B0E0E2E3F0E090818A81892B8C9334
:102310000F900F900F900F90CF91DF910895DF9362
:10232000CF9300D000D0CDB7DEB789836A8389818F
:10233000843008F061C08A81807F8A838981282F58
:1023400030E03C832B838B819C818130910529F186
:102350002B813C81223031052CF48B819C810097AC
:1023600061F04AC02B813C812230310531F18B81F3
:102370009C818330910589F13FC0ABE3B0E0EBE392
:10238000F0E080818F708C93ABE3B0E0EBE3F0E0A2
:1023900090818A81892B8C932FC0A8E3B0E0E8E379
:1023A000F0E080818F708C93A8E3B0E0E8E3F0E088
:1023B00090818A81892B8C931FC0A5E3B0E0E5E36F
:1023C000F0E080818F708C93A5E3B0E0E5E3F0E06E
:1023D00090818A81892B8C930FC0A2E3B0E0E2E365
:1023E000F0E080818F708C93A2E3B0E0E2E3F0E054
:1023F00090818A81892B8C930F900F900F900F9072
:10240000CF91DF910895DF93CF93CDB7DEB70E94D0
:102410009608CF91DF910895DF93CF9300D000D03D
:10242000CDB7DEB79A8389836B830E94B308882374
:1024300011F01C8229C089819A8180709770880F61
:10244000892F881F990B9195806A60E00E94E908A6
:10245000833011F01C8218C0CE01019660E040E08C
:102460000E942F09883011F01C820EC0CE01039605
:1024700060E040E00E942F09883011F01C8204C007
:102480000E94960981E08C838C810F900F900F90B1
:102490000F90CF91DF910895DF93CF9300D000D0BC
:1024A0000F92CDB7DEB79A8389837C836B830E94BA
:1024B000B308882311F01D8240C089819A81807001
:1024C0009770880F892F881F990B9195806A60E01B
:1024D0000E94E908833011F01D822FC0CE010196C1
:1024E00060E040E00E942F09883011F01D8225C075
:1024F0000E94CE08882311F01D821FC089819A8115
:1025000080709770880F892F881F990B9195806A2A
:1025100061E00E94E908853011F01D820EC08B81B8
:102520009C8161E041E00E942F098C3011F01D82F6
:1025300004C00E94960981E08D838D810F900F90D9
:102540000F900F900F90CF91DF910895DF93CF936D
:10255000CDB7DEB781E060E041E00E94090D81E087
:1025600061E041E00E94090D81E060E040E00E94EE
:102570008F0E81E061E040E00E948F0ECF91DF91ED
:102580000895DF93CF9300D0CDB7DEB789836A83F8
:102590008981823059F481E060E040E00E948F0E32
:1025A00081E061E041E00E948F0E18C08981813096
:1025B00059F481E060E041E00E948F0E81E061E02B
:1025C00040E00E948F0E0AC081E060E040E00E947F
:1025D0008F0E81E061E040E00E948F0E8A810E94B0
:1025E000D20B0F900F90CF91DF910895DF93CF938F
:1025F000CDB7DEB783E062E041E00E94090D83E0E1
:1026000062E040E00E948F0ECF91DF910895DF934A
:10261000CF93CDB7DEB783E062E041E00E948F0E3A
:10262000CF91DF910895DF93CF93CDB7DEB783E0ED
:1026300062E040E00E948F0ECF91DF910895DF931A
:10264000CF93CDB7DEB70E9450070E9403120E94BD
:10265000F6120E94A6128BE395E10E948D0B0E9458
:10266000ED0CCF91DF910895DF93CF93CDB7DEB717
:102670002B970FB6F894DEBF0FBECDBFCE010296EA
:102680009E01295F3F4FB9010E94F513813021F46B
:1026900081E10E944A1404C080E00E944A14EECFF7
:1026A0000E943814898389818B3249F4CE010296C5
:1026B0009E01295F3F4FB9010E948614F1CF8981A5
:1026C0008D3271F7CE0102969E01295F3F4FB9010D
:1026D0000E94E714E5CF0F931F93DF93CF9300D0B1
:1026E0000F92CDB7DEB79B838A830E94A00780320A
:1026F0009105D9F780E190E00E94870719820FC009
:102700008981282F30E08A819B818C01020F131F61
:102710000E94A007F801808389818F5F8983898166
:10272000853070F30F900F900F90CF91DF911F9134
:102730000F910895DF93CF9300D000D000D0CDB794
:10274000DEB79B838A837D836C83198219C089815C
:10275000282F30E08A819B81FC01E20FF31F40812A
:102760008981282F30E08C819D81FC01E20FF31FCD
:102770008081481711F01E8208C089818F5F89838C
:102780008981853020F381E08E838E8126960FB675
:10279000F894DEBF0FBECDBFCF91DF910895DF93D8
:1027A000CF9300D00F92CDB7DEB79B838A83198277
:1027B00013C08981482F50E08981282F30E08A8119
:1027C0009B81FC01E20FF31F2081CA01622F0E944E
:1027D0000C1289818F5F89838981853050F30F9036
:1027E0000F900F90CF91DF910895DF93CF9300D09A
:1027F00000D00F92CDB7DEB79A8389837C836B8339
:1028000089819A810E946B138B819C810E946B133A
:1028100089819A812B813C81B9010E949A13882376
:1028200039F089819A810E94CF1381E08D8301C0A4
:102830001D828D810F900F900F900F900F90CF9170
:10284000DF910895DF93CF930F92CDB7DEB78983E1
:102850000E942C0B9091760189819817D8F381E022
:102860000E94B10B109276010F90CF91DF910895E5
:10287000DF93CF93CDB7DEB70E94A00780329105DA
:10288000D9F780E190E00E9487070E94A007CF91CE
:10289000DF910895DF93CF930F92CDB7DEB7898391
:1028A00080E190E00E9487070E94A0078032910596
:1028B000D9F78981882F90E00E9487070F90CF91E8
:1028C000DF910895DF93CF9300D00F92CDB7DEB79D
:1028D0009B838A83198211C08981482F50E08981A6
:1028E000282F30E08A819B81280F391FCA01B90146
:1028F0000E944C1289818F5F89838981853060F3C2
:102900000F900F900F90CF91DF910895DF93CF93A9
:1029100000D000D0CDB7DEB79A8389837C836B83E8
:1029200089819A810E946B138B819C810E94621421
:1029300089819A812B813C81B9010E949A1381304F
:1029400019F582E20E944A1481E064E60E94C112F5
:102950008FE00E94221480E060E00E94C11283E0B8
:102960000E94221483E30E944A1482E064E60E94DB
:10297000C1128FE00E94221480E060E00E94C11228
:1029800084E40E944A141CC0809177018F5F809379
:10299000770180917701833020F480E00E944A140F
:1029A000BFCF109277018FEF0E944A140E94071345
:1029B0008CE30E9422140E94131385E50E944A149E
:1029C0000F900F900F900F90CF91DF910895DF93AC
:1029D000CF9300D000D0CDB7DEB79A8389837C83B4
:1029E0006B8389819A810E946B138B819C810E94E9
:1029F000621489819A812B813C81B9010E949A13CA
:102A00008130B1F481E10E944A1489819A812B813D
:102A10003C81B9010E94F513813031F481E10E94BB
:102A20004A141092770120C080E00E944A14EDCF32
:102A3000809177018F5F8093770180917701833058
:102A400020F480E00E944A14CCCF109277018FEFDF
:102A50000E944A140E9407138CE30E9422140E94D1
:102A6000131385E50E944A140F900F900F900F905A
:102A7000CF91DF910895DF93CF93CDB7DEB78091EB
:102A800076018F5F80937601CF91DF910895DF9378
:102A9000CF93CDB7DEB70E941F130E94341380E09E
:102AA00090E0CF91DF9108952F923F924F925F92E5
:102AB0006F927F928F929F92AF92BF92CF92DF924E
:102AC000EF92FF920F931F93CF93DF93CDB7DEB7B3
:102AD000CA1BDB0B0FB6F894DEBF0FBECDBF099447
:102AE0002A88398848885F846E847D848C849B849E
:102AF000AA84B984C884DF80EE80FD800C811B81AC
:102B0000AA81B981CE0FD11D0FB6F894DEBF0FBEDA
:0A2B1000CDBFED010895F894FFCF4A
:102B1A00000000000000000000010202030303039A
:102B2A000404040404040404050505050505050553
:102B3A000505050505050505060606060606060633
:102B4A00060606060606060606060606060606061B
:102B5A000606060606060606070707070707070703
:102B6A0007070707070707070707070707070707EB
:102B7A0007070707070707070707070707070707DB
:102B8A0007070707070707070707070707070707CB
:102B9A0007070707070707070808080808080808B3
:102BAA00080808080808080808080808080808089B
:102BBA00080808080808080808080808080808088B
:102BCA00080808080808080808080808080808087B
:102BDA00080808080808080808080808080808086B
:102BEA00080808080808080808080808080808085B
:102BFA00080808080808080808080808080808084B
:102C0A00080808080808080808080808080808083A
:082C1A00080808080808080872
:00000001FF
